:020000040001F9
:1090000088410020C1930100C9930100CB93010066
:10901000CD930100CF930100D19301000000000027
:10902000000000000000000000000000D3930100D9
:10903000D593010000000000D7930100D9930100EF
:1090400085950100DB9301000D980100DB93010081
:109050004196010000000000E1940100DB93010053
:10906000DB930100DB930100DB930100DB93010044
:10907000DB930100DB930100DB930100DB93010034
:10908000DB930100D5950100DB9301000000000097
:10909000DB930100DB93010085960100DB93010067
:1090A000DB930100DB9301000000000000000000E2
:1090B00000000000000000000000000000000000B0
:1090C00000000000000000000000000000000000A0
:1090D0000000000000000000000000000000000090
:1090E0000000000000000000000000000000000080
:1090F0000000000000000000000000000000000070
:10910000000000000000000000000000000000005F
:10911000000000000000000000000000000000004F
:10912000000000000000000000000000000000003F
:10913000000000000000000000000000000000002F
:10914000000000000000000000000000000000001F
:10915000000000000000000000000000000000000F
:1091600000000000000000000000000000000000FF
:1091700000000000000000000000000000000000EF
:1091800000000000000000000000000000000000DF
:1091900000000000000000000000000000000000CF
:1091A00000000000000000000000000000000000BF
:1091B00000000000000000000000000000000000AF
:1091C000000000000000000000000000000000009F
:1091D000000000000000000000000000000000008F
:1091E000000000000000000000000000000000007F
:1091F000000000000000000000000000000000006F
:10920000DFF80CD000F02EF90048004775B60100D9
:109210008841002030B450E8012F93B2C489234420
:109220008489A34228BF1B1B0489A34202BFBFF34A
:109230002F8F002007E0C3EA020340E80134002C2E
:10924000E9D14FF001000A6030BC704750E8012FAF
:10925000C2EA024240E801210029F7D1704730B448
:1092600050E8022F1FFAA2F3C488A34202BFBFF343
:109270002F8F00200DE0C48923448489A34228BF96
:109280001B1BC2EA034340E80234002CE8D14FF034
:1092900001000A6030BC704750E8022FC2EA224247
:1092A00040E802210029F7D17047034653E8022F16
:1092B000D988B2EB324F4FF0000017BF92B241EAAB
:1092C000014142EA014104E05A68B2EB324F08BF63
:1092D000012043E80212002AE8D1704730B4044666
:1092E00054E8000F0D4644E80053002BF8D11560F8
:1092F00030BC704730B4044654E8000F40EA010522
:1093000044E80053002BF7D1156030BC704730B4EF
:10931000044654E8000F00EA010544E80053002B1E
:10932000F7D1156030BC704730B4044654E8000FE4
:1093300080EA010544E80053002BF7D1156030BCEA
:10934000704730B4044654E8000F00EB010544E8D0
:109350000053002BF7D1156030BC704730B4044681
:1093600054E8000FA0EB010544E80053002BF7D1AF
:10937000156030BC704770B404464FF0000054E8EC
:10938000006F0D68AE4207BF44E80023012044E8A7
:1093900000630E60002B1CBF0020F0E770BC70471C
:1093A00030B4044654E8000F88422CBF451A0546E5
:1093B00044E80053002BF5D1156030BC7047000025
:1093C0000648804706480047FEE7FEE7FEE7FEE75F
:1093D000FEE7FEE7FEE7FEE7FEE7FEE7899601000F
:1093E00001920100202A04DB203A00FA02F1002059
:1093F00070479140C2F1200320FA03F319439040D3
:10940000704700000048704750E3010040EA010344
:109410009B0703D009E008C9121F08C0042AFAD22A
:1094200003E011F8013B00F8013B521EF9D27047EE
:10943000D2B201E000F8012B491EFBD27047002296
:10944000F6E710B513460A4604461946FFF7F0FF43
:10945000204610BD421C10F8011B0029FBD1801AC8
:1094600070470000064C074D06E0E06840F001033D
:1094700094E8070098471034AC42F6D3FFF7C4FED7
:1094800024EA010044EA010070B58C1810F8015B71
:1094900015F0070301D110F8013B2A1106D110F88D
:1094A000012B03E010F8016B01F8016B5B1EF9D191
:1094B0002B0705D40023521E0DD401F8013BFAE717
:1094C00010F8013BCB1A921C03E013F8015B01F882
:1094D000015B521EF9D5A142D8D3002070BD000017
:1094E0002DE9F8430025DFF894804FF480760124BD
:1094F0002F460095304602F0A3FE38B1D8F8040399
:10950000204203D0304602F091FE2543361D640010
:109510007F1CB6B2082FEDD34FF4BE74204602F084
:109520008FFE48B1204602F081FE45F000456A46B4
:109530000121002002F04EFE15F0FF0F16D001268B
:1095400000242E420ED008EB8401D1F81005D1F88A
:109550001015C0F304200A4AC1F3014152F8242037
:1095600002B190477600641C082CEAD3002D02DA81
:10957000684603F087FFBDE8F88300000060004004
:10958000C830002070B54FF48076304602F05CFCA5
:109590000F4DB40540B1304602F05DFC0120C4F827
:1095A00008032968002088474FF48276304602F08D
:1095B0004BFC00280AD0304602F04DFC0220C4F8D3
:1095C00008032968BDE870400120084770BD00000D
:1095D000C82B002002490248091F09680068084793
:1095E000402C002070B50E46144900EB400001EB02
:1095F000C0051446E86A183520B101280FD00228AA
:1096000005D113E0284600F007F9A04201D200245A
:1096100011E022463146284600F036F90BE0284694
:1096200000F0FAF8A042F4D20446F2E731462846A8
:1096300000F0FDF80446204670BD00000037002011
:1096400038B54FF040200E4C0025C0F80851D0F836
:1096500008110091214604F003FB00280ED1A07FE1
:10966000FF2801D002F0DBFD65772572D4E90021E7
:1096700001B004F10800BDE83040104738BD0000DB
:109680002431002003F0A6BA10B54FF08053002219
:10969000D3E94C100F2905D1D3F84432514CC3F310
:1096A000423323600F2908D14FF08043C3F80C21C7
:1096B000C3F810214B4B1B1F1A600F2955D14A4A82
:1096C00012684A4B1A60484A121D12681B1D1A6024
:1096D000454A083212681B1D1A60434A0C32126850
:1096E0001B1D1A60404A103212681B1D1A603E4A48
:1096F000143212681B1D1A603B4A183212683B4B29
:1097000020331A60384A1C3212681B1D1A60364A10
:10971000203212681B1D1A60334A243212681B1D46
:109720001A60314A283212681B1D1A602E4A2C32E8
:1097300012681B1D1A602C4A303212682B4B4033C2
:109740001A60294A343212681B1D1A60264A3832C0
:1097500012681B1D1A60244A3C3212681B1D1A60D5
:10976000214A403212681B1D1A600F2906D1204A77
:109770001368DB0702D06FF0010313600F2904D1D7
:109780001C48016841F00F0101604FF01022D2F82F
:109790000002002803DBD2F8040200281EDA0120B0
:1097A00003F044FD1521C2F8001213480368002B92
:1097B000FCD0C2F8041201680029FCD0002003F09C
:1097C00035FDBFF34F8F0D4801680D4A01F4E0618C
:1097D00011430160BFF34F8F00BFFDE70A490948FD
:1097E000086010BD3C0500400404001020C5004086
:1097F00000040040E40E004000E401400CED00E0F5
:109800000400FA050090D003B42C00200148006841
:1098100000470000D02B00200269C1688A4203D8AB
:109820008068401A104400E0501A401E70472DE92D
:10983000F047C4681746894606464FF0000830696D
:10984000A04201D9051B02E0B168201A0D1AB068C8
:109850006D1E001BA84200D80546BD4200D33D4600
:1098600070682A4620444946FFF7D0FDB0687F1B48
:109870002C44A844A944A04200D10024F460002F45
:10988000DDD14046BDE8F0872DE9F0410446884629
:10989000D4E90207C51BE168606816460844B54272
:1098A00006D94146FFF7B2FDB819E060BDE8F08186
:1098B0002A464146FFF7AAFD761B08EB0501324612
:1098C0006068FFF7A3FDE660F0E702E008C8121F3A
:1098D00008C1002AFAD170477047002001E001C199
:1098E000121F002AFBD170470121202803DA814092
:1098F0000548014003E0402802DA2038814009B1E0
:109900000120704700207047FC06FFBD2DE9F0479D
:10991000284C0126DFF8A490267160783246A5799C
:10992000254B09F14808411C0CE0D7073FD038F817
:10993000157000BF94F805C023F81C7067797F1C70
:109940006771521C8A42F0DB6D1CE9B20025A171DF
:10995000242900D3A571217841EA0020188060797C
:10996000602811D94000134A20810832A389124986
:1099700002F1180000F0BCFE2078401CC0B220703C
:10998000FF2800D325706671E07868B160780B4ECF
:109990000001163E6081706800F040F90022618984
:1099A000706800F011F9E5702571BDE8F08739F8AD
:1099B0001570BFE7402B0020D02C002066DF01008F
:1099C00090F824001F20704710B5012202210020CA
:1099D00001F034F808B1072810D107220221012034
:1099E00001F02CF808B1072808D100210A22084606
:1099F00001F024F808B1072800D1002010BD0000B4
:109A000070B50024064D06E06868012110F83400A6
:109A100003F0DAF9641C28788442F5D3002070BD85
:109A2000E02B0020F8B516460C4605460A2A01D25E
:109A30000720F8BD03F0C2FA18B903F085FA002830
:109A4000F7D1134F102113487D603C70BE60FFF7C3
:109A5000F6FC0020C7E904000F4E0DE005EBC40042
:109A60003168009181788DF8011000780B4A6946C1
:109A700003F0FAF90028DCD1641EE4B2EED2BDE8AE
:109A8000F84005480021064A001D00F05FB80000BC
:109A9000E02B00205031002068E0010035B40100C7
:109AA0006DAF010072B602F0FDFD00BF02F05AFC7E
:109AB0000028FBD111481249401AC408012000EBCC
:109AC000044010A102F06AFD11480068C00700D0F0
:109AD00000BE022000EB04400EA102F05FFDBFF3C8
:109AE0004F8F0B48E43801680E4A01F4E0611143DE
:109AF0000160BFF34F8F00BFFDE70000BCEA01002B
:109B000054EA0100466174616C206572726F7200E4
:109B1000F0ED00E053797374656D207265736574C0
:109B2000000000000400FA050EB500210091CDE907
:109B300001106A4644F20100FFF7B4FF0EBD0000B9
:109B4000014801F07ABA0000202C002010B55AB16B
:109B500000684FF0FF3401294261C0E9024400D09F
:109B600000210161002010BD072010BD38B511484B
:109B700008235822416800910F49006801F089FFCD
:109B8000002815D10D4A69460D4801F05BFA040022
:109B90000ED101210A4801F0D0FA0123094A1946E1
:109BA000074801F022FA06490120083908702046CA
:109BB00038BD000070E001007031002035D6010092
:109BC000202C0020FFFF7F00F8B504460026174632
:109BD0000D468DF80060684600F042F8D4E90201B5
:109BE000C04370EA010005D09DF8000000F05CF869
:109BF0000020F8BD01F004FC40197141C4E90201E4
:109C00009DF8000000F050F8A761206900B12561BF
:109C10002146BDE8F840002003F0FABF38B50446FD
:109C200000208DF80000684600F01AF8D4E902011F
:109C3000C04370EA01000DD04FF0FF30C4E90200CC
:109C40009DF8000000F030F82146BDE838400120C2
:109C500003F0DEBF9DF8000000F026F8002038BDBC
:109C600030B5EFF3108172B60D4A9468012324B128
:109C70000370002900D162B630BD93604FF0E0233D
:109C8000D3F88051074C25401560C3F88041D3F8C4
:109C9000844154605A17C3F8842100220270E8E717
:109CA000C8310020FC06FFBD0B498A68002A11D08C
:109CB00000280FD1EFF3108072B60B684FF0E0224E
:109CC000C2F800314B68C2F8043100228A600028D3
:109CD00000D162B670470000C831002070B5150091
:109CE000044609D00020286034B1206820B1A07952
:109CF000800703D0072070BD0E2070BD084600F01D
:109D00000BFBC0B2142804D02179814203D804206F
:109D100070BD052070BDE288216800FB021028603C
:109D2000002070BD2DE9FC470025178806461580E8
:109D300090F82D001446894630B13A4621464846EF
:109D400000F0FEFA051E09D1B0784FF00C0A18B3E6
:109D50002088C846001DB84202D95046BDE8FC879D
:109D6000684679DF0028F9D12088032108F800101F
:109D700020881921401C80B2208008F8001020881B
:109D8000401C80B2208000EB0801BDF8000003F009
:109D900099FF218808442080F0780222C8B12188E8
:109DA00096F9033001F1030C4846BC45D5D842541E
:109DB00021884FF0010C491C89B2218000F801C0B4
:109DC0002188491C89B2218009F801302088401C73
:109DD00020807068B8B1218890F9003001F1030C3F
:109DE0004846BC45B9D8425421880A22491C89B248
:109DF000218042542188491C89B2218009F8013010
:109E00002088401C2080308950B1CDE900474B4666
:109E10000622022106F1080004F016F8051E9DD165
:109E2000308A50B1CDE900474B460722032106F1A5
:109E3000100004F009F8051E90D1308B50B1CDE927
:109E400000474B461522142106F1180003F0FCFFD1
:109E5000051E83D1306A30B13B462246494601F0A7
:109E60001AF8051EDBD1706A30B13B4622464946DE
:109E700001F032FD051ED2D196F82C0038B13B46D8
:109E800022464946304603F009FD051EC7D1307809
:109E900038B13B4622464946304601F0A7FD051E33
:109EA000BDD128465AE718B504460020ADF8000099
:109EB00013466A46204600F006F8002802D0BDF896
:109EC0000000204418BD70B5E0B1DAB1002402E012
:109ED000045D2C44A4B2651C8D4206D21688A642AD
:109EE000F6D8061976789E42F2D18C420AD2A31C8B
:109EF000005D9BB200B1401E0004000C02D01C1893
:109F00008C4201D9002070BD138070BD80F83010E4
:109F100070472DE9F0410D00044606D02CB195F8AC
:109F20007A000026012803D006E00E20BDE8F0816B
:109F300095F89800012829D0D5F8A000042825D04C
:109F4000D5F89C00042821D04FF00108A6702C22DF
:109F500005F17801201DFFF759FA84F83060D5F833
:109F6000A4006063D5F8A800A0634FF6FF70A4F8C2
:109F7000E80004F1D400C4F8E400C4F8EA60A4F8EE
:109F8000EE6084F8F060207810B104E00720CDE79F
:109F9000FF2084F8540004F155072046C4F8D4701B
:109FA000FFF70EFDA4F8D80004F1D8023946284680
:109FB000FFF7B8FE0028B9D104F19300C4F8DC0023
:109FC0002046FFF7FDFCA4F8E00004F1E00205F1F3
:109FD0003C00D4F8DC10FFF7A5FE0028A6D184F8D9
:109FE0005180208BA4F8480084F83C80266484F8D3
:109FF0005060606900216064454604F13C02781EAF
:10A0000072DF002892D1257090E710B50288102ADF
:10A010001BD0112A20D0262A1DD1007A0C460128F7
:10A0200001D0022817D1A0780521401CB0FBF1F225
:10A0300001FB1201204600F03AF800280BD0A16B7A
:10A04000002908D0BDE810400847C27B012A02D190
:10A050008088A1F8E80010BD0C46002184F8F210B9
:10A060008088B4F8E8108842F5D120790028F2D130
:10A070000121DFE710B5044690F8540074DF012099
:10A0800084F8F200002084F8F40084F850000621DF
:10A09000204601F05AF9002808D1A178204600F0A6
:10A0A00006F810B1A16B01B18847002010BD2DE961
:10A0B000F05F044600780F4698B1A7700025C4F8F9
:10A0C000EA50A4F8EE5084F8F050A079012608B1C7
:10A0D000012F09D0E07980B1012F05D0022F03D0E4
:10A0E0000BE00820BDE8F09F616B21B184F8F160BE
:10A0F0000820884701E084F8F15004F1EB010020CA
:10A100000A5C0AB1304603E0401C0628F8D3002060
:10A110004FF002084FF0030A4FF0040B012F06D056
:10A12000022F0CD0032F0FD0042F15D110E0A179EE
:10A1300029B194F8241011B908B130460DE0E17945
:10A1400011B108B1404608E0207A08B1504604E059
:10A15000607A08B1584600E02846A070616B41B1B2
:10A16000032801D0042804D1607910B194F8F200DA
:10A1700098B184F8F35004F13C0018210746FFF72A
:10A180005EF984F83C6004F12C0003F04BF958B1FF
:10A1900094F82C0084F8510008E084F8F45084F816
:10A1A000F36007208847E6E784F8516094F82400BC
:10A1B00058B104F1280003F035F920B194F82800D3
:10A1C00084F8520001E084F8526084F85050A2787C
:10A1D00004F1EA0104F1D409052A4DD2DFE802F0C6
:10A1E00065030F1B320084F83160C4F8E450C4E901
:10A1F000101584F83C808020A4F848003EE084F8E4
:10A20000318087F800A0228ABA81C4F8E4507960CE
:10A21000E168B96032E06069B860208BB8813D4682
:10A2200084F83C60204603F0E1FD40B185F81480DD
:10A230000421204601F089F8F0B9052115E084F8E1
:10A2400031A017E0E069B860208CB8813D4684F801
:10A250003C60204603F0CAFD50B185F8148004210B
:10A26000204601F072F838B9062184F8311001E077
:10A2700084F831B0C4F8E490A07878B13A4604F19B
:10A280005400D4F8E41072DF00287FF42BAF94F868
:10A29000301094F8540073DF0028F6D1616B11B1CF
:10A2A00094F83100884700201CE784F83150F5E726
:10A2B00070B5040012D001461C221448FFF7A6F81E
:10A2C0001248134D0560206850B17ADF002806D18E
:10A2D0002068016829604068686005E00E2070BD54
:10A2E0000B487BDF0028FAD108484FF6FF7114387D
:10A2F000084A20F8041B0549343901600021FFF7A2
:10A3000025FC0028EBD0032070BD00001C3000208D
:10A31000C02B002085DD010010B5044600F006F8D2
:10A3200008B1204610BD142010BD0000142801D330
:10A33000002070470146014801F0F5BB3C30002089
:10A340007CB5054608880C460930904201D90C209E
:10A350007CBD68466DDF0028FAD12188082068544A
:10A3600020881B21401C80B2208029542088401C5A
:10A3700080B220802844DDF801100160BDF805108E
:10A3800081802088801D80B220809DF800104908BF
:10A3900000D0012129542088401C208000207CBD51
:10A3A000F8B52B4D01880446AE8921293BD015DC38
:10A3B0002848294A1029A0EB02004FEAD0004FF0AC
:10A3C000030202EB004013D0112925D0132929D113
:10A3D00000231A46852130467FDF17E03B2932D023
:10A3E00052292AD056291DD18088132176DF0DE00D
:10A3F0001AA102F0D3F8072000F042FB08B1FFF7E2
:10A4000093FBA188A981184801F0A6FC002809D077
:10A41000BDE8F840FFF788BB14A102F0BFF84FF683
:10A42000FF70A881F8BD00200090A08869468FDFEA
:10A430000028F7D0FFF778FBF8BD00231A4619462D
:10A440003046B1DFE2E78088132176DFDEE70000E7
:10A45000402B0020BCEA010054EA0100436F6E6EFD
:10A460006563746564000000D42E00204469736342
:10A470006F6E6E65637465640000000010B51A4C61
:10A480000188606810290ED011292BD1401E606010
:10A4900028D1FFF799FA002824D02168002921D07B
:10A4A000BDE810400847D0B900210122084600F05D
:10A4B000C5FA08B107280FD107220221012000F0B8
:10A4C000BDFA08B1072807D104220221002000F0BC
:10A4D000B5FA20B1072802D0216801B18847606829
:10A4E000401C606010BD0000B82B00202DE9F04733
:10A4F00001883B4E40F2F3194FF6FF7510291BD02F
:10A5000011293ED0122954D0502946D1C188F28950
:10A51000841D914241D1618902293ED1868830460D
:10A5200000F0A6FF050038D004F10C0000F0B9F9E6
:10A53000A8B3294630464EE0C17B878804460129EE
:10A540002BD1A846284600F093FF050017D02F8096
:10A5500000202872234843464A460168C5F80A107D
:10A560004068C5F80E0004F1100105F10A0000F082
:10A57000F6FF6872F08900280FD129462AE00420EE
:10A5800013E0808800F074FF040006D06068FFF7D5
:10A5900045FB08B103F052F92580BDE8F087FFE7DD
:10A5A0006868FFF73BFB0028F7D0BDE8F04703F0F1
:10A5B00045B987880646384600F05AFF0400ECD0BB
:10A5C0002B464A4606F1080104F10A0000F0C7FFD5
:10A5D000607221463846BDE8F04700F0A3BC000099
:10A5E0001C300020C02B00202DE9F047028886880F
:10A5F000DFF8F8A098B0102A0DD0112A46D00AF141
:10A600001003192A61D01A2A6CD1007A0409042C8B
:10A6100043D3012242E0354C083CA068C0430B9074
:10A6200061680BA801F0A0FA0B990CA800F014FCCB
:10A630002C220CA96846FEF7E9FE0027E8460FE049
:10A6400008EB47005FF00005B0F8049004EB8500CC
:10A650004946001D01F05CFA6D1C1E2DF6D37F1CCF
:10A660000098B842ECD8142E05D318B00420BDE8E9
:10A67000F047FFF759BA3146504601F05FFA18B07B
:10A680003146201DBDE8F04701F058BA18B03146F8
:10A690005046BDE8F04701F03BBA0022314618466B
:10A6A00000F04EFE032C01D3012200E000220F48EF
:10A6B00031460C3000F044FE022C01D3012200E0B0
:10A6C00000220A483146083007E0017A002909D102
:10A6D000407A3146C0F3C002184618B0BDE8F047D2
:10A6E00000F02EBE18B0BDE8F0870000403000201A
:10A6F000F0B585B016460F4604001D4614D004AAD6
:10A7000019466069FFF7EAFA00280BD1A5F57F40EA
:10A71000FF380BD0049848B1007848B13088F4284D
:10A7200008D9072005B0F0BD0E20FBE70520F9E7AA
:10A730000820F7E700200090019002900390A08885
:10A74000ADF8000001208DF80200CDE902676946EE
:10A750002846AEDFE6E7000070B5334D04008EB04A
:10A760002DCD08AE86E82D005BD0E9B30868A06166
:10A77000214608A862DF002851D1207801258DF8F4
:10A780003200ADF83050A21C0CA92846A8DF0028E2
:10A7900045D120216846FEF752FE0220ADF80000A8
:10A7A00020788DF802008DF80C509DF80D00F426ED
:10A7B000ADF8046040F00C008DF81150ADF8065073
:10A7C0008DF80D008DF81250608804F10C02694676
:10A7D00000F04CFA002822D120216846FEF72FFE17
:10A7E0000320ADF8000000E01BE020788DF80200A7
:10A7F0008DF80C509DF80D008DF81150ADF80460E7
:10A8000040F010008DF81250ADF806508DF80D0094
:10A810008DF813506088221D694600F027FA0EB0AB
:10A8200070BD0E20FBE7000050E0010070B588B05D
:10A830000446002927D0002C25D00846218810295D
:10A8400023D0502927D057291DD10546A18840691A
:10A8500006AAFFF743FA002815D1069E3078002893
:10A8600011D0A86900280ED018216846FEF7E7FD30
:10A8700001208DF800000195A088ADF8080003962E
:10A88000A9696846884708B070BD08B02146BDE890
:10A89000704002F0F7BC08B02146BDE8704002F0FD
:10A8A0007FBD007800F00100704700000149085C9E
:10A8B0007047000018E001000649095C4FF0A04015
:10A8C000D0F81005C84010F0010000D0012080F041
:10A8D0000100704718E0010010B50246064B4FF02A
:10A8E000FF3000215C5C944201D1084610BD491C38
:10A8F0000429F7D310BD000018E0010070B50C4E1C
:10A900000C004FF0000530600BD0012000F06AF819
:10A9100008B1022004E0002000F064F800B10B2030
:10A920002070706810B9FFF74FF80546284670BDD3
:10A93000B82B002010B5002000F0D4F808B106288C
:10A9400006D1012000F0CEF808B1062800D1002081
:10A9500010BD00002DE9F0470D468146FFF7BCFF12
:10A960000446042836D2DFF874801B481C4EA8F138
:10A97000080725B3012D0ED0022D2BD104EB440086
:10A9800030444578002D25D07968002922D028460A
:10A99000BDE8F047084704EB4401755C0E4471784C
:10A9A00049B10E4A4FF48041083A0068FFF70CF9AC
:10A9B00008B987F80090B17808F80410E2E7006859
:10A9C000FFF72CF904EB4401314418F804008D78AA
:10A9D000A842D7D0BDE8F0871CE00100902B0020F2
:10A9E000D82F0020042801D2FFF766BF002070474F
:10A9F0000146104810B58089042907D007290ED0D8
:10AA00000A2915D1BDE8104002F0A4BF132176DF5A
:10AA10000CE000280CD0BDE81040FFF785B8A0F589
:10AA20007F41FF3904D10448FFF724FB0828F0D107
:10AA300010BD0000402B0020E02E002070B5002348
:10AA4000042810D20D4D00EB4004012A02D1012947
:10AA50000CD00022094E00EB4000304461B10129C6
:10AA600006D0022906D00723184670BD0E30C2B2A8
:10AA70002A55F9E74270F7E78270F5E7D82F0020F2
:10AA800000207047144B10B5024600205960910712
:10AA90000AD50024012211462046FFF7CFFF641C8F
:10AAA000042C02D20028F5D010BD0028FCD140F2C1
:10AAB000333204210948FEF7B5FF0028F4D1FEF730
:10AAC0009FFF0028F0D105480021BDE81040044A4E
:10AAD000001FFFF73BB80000882B002020E001009A
:10AAE000F1AB0100012103F016BA00002DE9F84F87
:10AAF0000546861C00208DF8000091460F464FF059
:10AB0000010A6846FFF7ACF81B4C04F21C48606869
:10AB10003860D4E90101194F401A3968081A0EE06B
:10AB20000121404601F01AF800F052FD014640466E
:10AB300001F014F8D4E90101401A3968081A401CE0
:10AB40008642EDD8B9F1000F03D0052065F38910D6
:10AB500002E0062065F39F5061683A68114004EBFB
:10AB60008101C8606068304460609DF80000FFF7B4
:10AB70009BF85046BDE8F88FE03200205C2C0020A6
:10AB800070B50D4604460A2902D10D21FFF7F8FFE2
:10AB9000A0682268411CA1601554D4E901018142DA
:10ABA00004D32046BDE8704001F0C9B970BD000073
:10ABB000044881684068814201D10120704700202B
:10ABC00070470000E0320020034630B507480021FE
:10ABD0000478426806E000BF02EBC10005789D42A0
:10ABE00003D0491CA142F7DB002030BDE02B002040
:10ABF00000780221FFF7AEBE05494FF0FF3208286A
:10AC000041F8202002D3084480F848207047000013
:10AC1000C8300020F0B54FF0FF3512B100230826F0
:10AC200001E008230C260C4C05E000BF54F823700B
:10AC30007F1C04D05B1CB342F8D32846F0BD261815
:10AC40005DB286F8305044F82310002AF5D1E1189F
:10AC500081F84800F1E70000C830002002490844AC
:10AC600090F9300070470000C83000202DE9F04313
:10AC70008146887891B090460C4600B901208DF845
:10AC80003E002088ADF83C0000250095607C6946B8
:10AC900002F048FE6E46A07C711C02F043FEE07B91
:10ACA00000289DF8020002D040F0080001E020F0EA
:10ACB00008008DF80200217C11B140F0100001E085
:10ACC00020F010008DF80200217B11B140F001004E
:10ACD00001E020F001008DF80200217D09B1022180
:10ACE00000E0012161F342008DF802001C2102A85E
:10ACF000FEF7A5FB607BC10601D4800617D50E9533
:10AD00000EAFE07C791C02F00DFE9DF8380007972D
:10AD100020F00F00401C20F0F00010308DF83800BB
:10AD20009DF83A0020F00600801C8DF83A00607B08
:10AD30008DF80800A07B8DF80900142109A8FEF702
:10AD40007EFB0FA8CDE90906A088ADF83000A06809
:10AD500020B1E088ADF82C00A0680D90A06998B3F0
:10AD600001950088ADF81000A06901AD01A94088E7
:10AD7000ADF81200A069406806950390A069007BB9
:10AD800002F0D0FDA069691C407B02F0CBFDA069F8
:10AD9000807A00289DF8060002D040F0080001E00B
:10ADA00020F008008DF80600A169C97A11B140F0C1
:10ADB000100001E020F010008DF80600A169097A6A
:10ADC00019B140F0010002E00DE020F001008DF823
:10ADD0000600A169897B09B1022100E0012161F32C
:10ADE00042008DF80600E06900B10590434609AACB
:10ADF00002A94846AADF11B0BDE8F08370B5084C3F
:10AE0000050009D010342168002907D008682060A7
:10AE1000496828468847F6E70834F4E770BD000023
:10AE2000B4300020054A012120B1012805D19170DC
:10AE3000FFF7E4BF51700020FAE77047B4300020FC
:10AE400010B5D0E90234D1E90220D11AA04101D3D2
:10AE5000012010BD002010BD73B58CB00646002047
:10AE600000900D9880B100246D4621460DA800F099
:10AE70005AFE30B1009805EB400084800098401CD9
:10AE80000090641C142CF0D32C2269463046FEF747
:10AE9000BDFA0EB070BD2DE9F04117880646B81D09
:10AEA00014460D46984202D90C20BDE8F081318845
:10AEB000072206290AD34FF4486C4FF6FF73614509
:10AEC00001D9994202D17088062801D21046ECE7D8
:10AED000604501D99842F9D1994203D0984201D0F6
:10AEE0008142F3D80520E85520881221401C80B209
:10AEF000208029542088401C80B22080411930884D
:10AF000002F0E0FE2188084480B220804119708858
:10AF100002F0D8FE2188084420800020C5E7FEF713
:10AF200003BE000038B54A7A0F4B62B100220A72A4
:10AF30005969002906D001228DF80020ADF80200E1
:10AF40006846884738BD0A7A62B19B684C680246F9
:10AF500019462046FEF738FE0028F3D0BDE83840F9
:10AF600002F06CBC5B68F1E71C30002070B5002477
:10AF70000F4D10E0686800EBC406307801F0DAFF8E
:10AF80007178012901D0012100E000214140307891
:10AF900000F05CF9641C28788442EBDBD5E90401FD
:10AFA000084303D0BDE8704002F04EBE70BD000003
:10AFB000E02B002010B50021024800F0E0FD80F3F6
:10AFC000100010BDFC3600204FF480328A4001682A
:10AFD000C1F848230068C0F8082370474FF4A072F6
:10AFE00002EB810189B200F0A1B92DE9F0410546DB
:10AFF0000E464FF4A07000EB860081B228684FF433
:10B000008034B440984622F07F47C0F8084328684F
:10B01000C0F84843286801F037FC286800EB860038
:10B02000C0F840752868C0F84443B8F1000F02D05A
:10B030002868C0F80443BDE8F0810068D0F8040532
:10B040007047000070B54379234C44F823204279BF
:10B05000231D03EBC202224C1579204A121BD4088F
:10B060002DB10825022000EB04401EA130E0056848
:10B070000A88C5F8082590F904208978002A4FEA43
:10B08000411104DB02F1E02282F8001405E002F035
:10B090000F0202F1E02282F8141D90F9041001223F
:10B0A000002909DB01F01F0502FA05F549098900AD
:10B0B00001F1E021C1F800514179002503EBC10104
:10B0C0000A71417943F83100032000EB04400EA1DE
:10B0D00001F064FA284670BD3C2C0020A4EA01006F
:10B0E00054EA010052544320696E7374616E6365C3
:10B0F00020616C726561647920696E697469616C44
:10B10000697A65642E0000005254433A20696E69E2
:10B110007469616C697A65642E00000090F904001E
:10B12000002809DB00F01F02012191404009800046
:10B1300000F1E020C0F8001270470A46022100F03A
:10B140007BB84FF4827100F0F1B800680121016012
:10B15000704700680121416070472DE9F05F0746A4
:10B160000C464FF4A07000EB84001FFA80FA386898
:10B170004FF48036A6409B4622F07F45C0F84863D6
:10B180003868C0F808633868D0F8048500EB84029A
:10B19000D2F84095C2F840855146386801F074FBFA
:10B1A000A9EB080020F07F40012806D1102001F013
:10B1B00003FE5146386801F067FB3868D0F8048513
:10B1C000C0F84463A5EB080121F07F4138680129EC
:10B1D00000EB840010D0C0F840553868D0F8041552
:10B1E0006FF07F4C6A1A521E22F07F42ACEB0B03C9
:10B1F000934217D362B118E06D1CC0F8405510207F
:10B2000001F0DAFD3868D0F8040540450AD10CE0B9
:10B2100000EB84006D1CC0F840553868D0F8040578
:10B22000884202D00D20BDE8F09F01223146384609
:10B2300000F002F80020F6E70368C3F84413002A80
:10B2400002D00068C0F80413704700002DE9F84FE1
:10B250000E463449804601EB5001C007097801D001
:10B260000F0901E001F00F074FF0000942460120ED
:10B270004946FEF7B7F8DFF8B0A004460D46052FA3
:10B280004ED2DFE807F003161B282C00002E47D013
:10B290000121404602F0CCFB8DF800906846FEF795
:10B2A000DFFC5046D0E904120C431543CAE90445BB
:10B2B00032E00EB1022114E0002112E04EB1032170
:10B2C000404602F0B5FB4046BDE8F84F012102F0D0
:10B2D000ABBD012105E0002E22D1042101E02EB1F9
:10B2E00003214046BDE8F84F02F0A2BB00214046D2
:10B2F00002F09EFB0021404602F096FD8DF8009082
:10B300006846FEF7ADFC5046E243D0E904341A40EB
:10B3100024EA0501CAE904219DF80000FEF7C4FCF7
:10B32000BDE8F88F50310020E02B002010B50068F8
:10B3300042581AB101F0A8FA012010BD002010BD3A
:10B340000AB100F0FBBB00F0E3BB70B50D4604464C
:10B35000B0F8D810D0F8D4000122FEF7A4FD00B157
:10B36000057004F13C0204F1D40104F1540072DFD1
:10B3700070BD00000C484A8883899A4213D10A881C
:10B38000A2F52063773B0ED18988C91E8AB2C2819B
:10B39000064807491346401AC008032101EB004044
:10B3A00004A101F006B97047402B0020BCEA01005F
:10B3B00054EA010044617461206C656E2069732059
:10B3C00073657420746F203078255828256429000F
:10B3D00010B50949094800F031FC08B1FEF7A4FB9B
:10B3E000F721064800F01EFC002803D0BDE81040FD
:10B3F000FEF79ABB10BD000075B30100C42E0020FB
:10B4000010B50B48FFF719FE094A083AD2E904348F
:10B41000C018D2E9063244F10001C31A71EB0202EE
:10B4200004D24FF08072801841F1000110BD00007D
:10B43000202C002010B5C0B2FFF7C6FB04460078F0
:10B4400001F078FD01466078012801D0012000E07C
:10B45000002090EA010F08D00449D1E90401084313
:10B4600003D1BDE8104002F0EFBB10BDE02B00207F
:10B470000146034802888A4200D00020704700003D
:10B48000083000202DE9FC5F0E008346DDE90C4703
:10B49000C6F1000098469246814600D40846012530
:10B4A00003E000BF90FBFAF06D1C5045FADAA845A6
:10B4B00000D9454624B1002E01DB780700D5641E73
:10B4C000B80702D5B8F1000F0AD0F80708D13CB18F
:10B4D000A54205D220215846641EFFF751FBF6E72E
:10B4E000002E02DA4E462D2102E0780703D52B21EB
:10B4F0005846FFF745FB07F0030002280BD1B8F1CF
:10B50000000F08D13CB1A54205D230215846641E37
:10B51000FFF736FBF6E7CDE9004743465246314692
:10B52000584602F0D5FBBDE8FC9F02460020126899
:10B53000530713D502F00300012802D002280CD1D2
:10B5400005E0C2F383100B68801C184404E002235A
:10B55000086803EB92521044086001207047F0B570
:10B560008488A518944200D82246A41AC288D61806
:10B570009A4200D81346D21A4B880788BB420CD394
:10B580004088834209D88888A04206D3A84204D8BC
:10B59000C888904201D3B04201D90020F0BD0120FB
:10B5A000F0BD4FF0A040D0F8041520228A43C0F827
:10B5B000082501F02001C0F80C157047F721018023
:10B5C00017214180002101714171704770470000CF
:10B5D0002DE9FF410026244800F0BDFA2248001F53
:10B5E000074600F0B8FA214C2149A06800900D6888
:10B5F00000E000986946284004EB80000C30FFF71B
:10B6000094FF0028F5D101AA009901EA050304EB93
:10B610008303491CDB6842F82030401C009102285B
:10B62000F2D3019800F0030001280BD0022810D1BA
:10B630000198032101EB90500099BDF80A6001EBDD
:10B64000900005E00198BDF80A60C0F3831008443B
:10B650000090384600F07CFA08B10098A06004B071
:10B660003046BDE8F0810000F8360020E0320020CE
:10B670005C2C0020894AB0B01026D2E90E10526C22
:10B680002E92CDE92B100C208DF8AE000E208DF8F7
:10B69000AD008DF8AC60FF208DF8AF00C0072D9095
:10B6A0007E4800231A462BA9283000F027FC08B159
:10B6B000FEF73AFA0024042000942346224621464D
:10B6C000019400F035FD012205200094002311466D
:10B6D000019400F02DFD4FF0A04701252020C7F870
:10B6E0000805642007F5A16700F0BEFB2020786004
:10B6F000642000F0B9FB6A482021C460C0E904510D
:10B700001821C0E901163E210160FEF72FFA08B1A9
:10B71000FEF70AFA6148634A01218038FEF716FAFB
:10B720005E4F0022803F4FF4FA513868FEF74CFA22
:10B730005D4A0121381DFEF709FA5C480022418963
:10B740007868FEF741FA5A490320FFF79BF908B1E0
:10B75000FEF7EAF969460020FFF7D0F808B1FEF7D6
:10B76000E3F901F07BF808B1FEF7DEF901F0F8F932
:10B7700008B1FEF7D9F969460120009401F094F868
:10B7800008B1FEF7D1F9684601F022F908B1FEF7D9
:10B79000CBF99DF8080047A120F00F00401C20F0D5
:10B7A000F00010308DF808000A2202A87CDF08B1F2
:10B7B000FEF7BAF90094ADF800603C200194ADF8B2
:10B7C0000200ADF804404FF4C870ADF806006846BA
:10B7D0007ADF08B1FEF7A8F9FFF7FAFD38480190C3
:10B7E00001A9384800F0C3FA08B1FEF79DF93648C0
:10B7F00000902E4869462030FEF7AEFF08B1FEF7F4
:10B8000093F9AC216846FDF71AFE02208DF800007E
:10B810008DF8024005208DF803002448ADF84C5007
:10B82000103014904020229044F2506023908DF804
:10B830007C5026482990234869460C30FEF769FB66
:10B8400008B1FEF771F91F4801210C30FEF75EFBCD
:10B850001C216846FDF7F3FD4FF4A030CDE9004010
:10B860004FF4F020029003208DF80C00184805904A
:10B8700018480690ADF80E408DF810406846FEF767
:10B8800017FD08B1FEF750F90E4803210C30FEF702
:10B890000EFC08B1FEF748F9FEE70000D0DF01001A
:10B8A000B82C0020A3B501000D990100402B002009
:10B8B000F1A901004D6F7573655F55415254000049
:10B8C00085C80100D42E0020A5D1010045D2010079
:10B8D00069D201001FAF010070B5144682880E4680
:10B8E00005462088111D0144921C994201D8FE2A68
:10B8F00001D90C2070BD521C32542088FF21401CFD
:10B9000080B2208031542088401C80B22080811970
:10B91000288802F0D7F92188084480B22080AA88BC
:10B9200042B1A96841B13044FDF770FD2088A98873
:10B9300008442080002070BD072070BD2DE9F0472D
:10B94000C5881E1DB6FBF5F78946B6FBF5F1044622
:10B9500005FB176C407916686843DDF820A0F718DE
:10B96000001F874200D9C61A166001E02468491EEC
:10B970000029FBD1A5EB0C078846B74216D818E082
:10B9800004EB0C00001D09EB0803BAF1000F3A4666
:10B9900002D00146184600E01946FDF737FD24683D
:10B9A000F61B4FF0000CB844B54201D9374600E011
:10B9B0002F46002EE4D1BDE8F087000030B50246E6
:10B9C00051B100F057FE0021074C08E034F8213057
:10B9D0001568AB4202D11160002030BD491C814284
:10B9E000F4D3052030BD000000000000F8B50F467C
:10B9F000017814460546012901D1687830B12088C4
:10BA0000821C9A4232D8012902D006E00720F8BDF4
:10BA100069780144891C994228D8181A801E86B278
:10BA2000ADF800602188B81C084469467DDF002815
:10BA3000EDD12978022904D06878BDF80020904221
:10BA400005D3BDF80000B04201D809200AE0082063
:10BA5000012905D16978B14202D8ADF8001001E0A2
:10BA6000ADF80060BDF80010FE2901D90C20F8BD2A
:10BA70002288491CB9542188491C89B221807854F4
:10BA80002088401C2080BDF8001008442080002041
:10BA9000F8BD10B531B1B2FBF3F403FB14241CB1B3
:10BAA000092010BD0E2010BD0160002141608160A1
:10BAB0008281C381084610BD70B50C460546FDF76E
:10BAC000A9FB002802D021882868084470BD10B561
:10BAD0000A8849888A4203D1FDF7DEFB012010BDA8
:10BAE000002010BD70B50C460546FDF7B8FB0028D8
:10BAF00002D061882868084470BD10B50A8849885A
:10BB00008A4203D1FDF7A2FB012010BD002010BD29
:10BB100001F01F0301229A40D243490900EB810042
:10BB2000114600F021B84A0950F8220001F01F0226
:10BB300001219140084000D00120704701F01F030F
:10BB400001229A40490900EB8100114600F01CB81F
:10BB5000002100F00FB8012100F016B808B56A46C0
:10BB6000FDF7EFFB009808BD08B56A46FDF7CFFB6F
:10BB7000009808BD08B56A46FDF7C9FB08BD08B5C1
:10BB80006A46FDF7ABFB08BD08B56A46FDF7B2FB98
:10BB9000009808BD08B56A46FDF7E0FB009808BDAF
:10BBA00038B5044600258DF800506846FEF758F871
:10BBB00021686268086890420ED9401E08600178CA
:10BBC000238AE26801FB0325227A2168101AC0B299
:10BBD0000A79824200D208719DF80000FEF764F8ED
:10BBE000284638BD38B5054600208DF800000C46C3
:10BBF0006846FEF735F8E868298A201AB0FBF1F1AB
:10BC00002A681068431C136001709DF80000FEF75D
:10BC10004BF838BDC20800F007030120895C98404A
:10BC20000840704728B1A1F11702E12A03D3072089
:10BC300070470E20704701800020704710B560B13A
:10BC4000C160F72120F8021B20F8021BFB2100F83D
:10BC5000021BFFF7B3FC002010BD0E2010BD00003A
:10BC60007CB50C468188002935D102880025102A30
:10BC700006D0112A0BD03A2A0DD0552A30D12BE00C
:10BC8000C07BA11D01282BD12088088028E0A01DA1
:10BC9000FFF794FC24E02246408934F8063F8342B3
:10BCA00000D818466080172800D217206080D0681E
:10BCB00078B1607968B1184BD3E90003CDE900038E
:10BCC000ADF802106088ADF80400D36869461046EC
:10BCD0009847657125717CBD0146204601F008FB3F
:10BCE000A07A0028F7D02846E188A5DF012680B198
:10BCF0001128F0D001F012F802460848084902B0B5
:10BD0000401AC00806EB0040BDE8704005A100F0F5
:10BD100049BCA572E6727CBD40E0010054EA010016
:10BD200054EA010073645F626C655F6761747463F9
:10BD30005F65786368616E67655F6D74755F726576
:10BD4000717565737428292072657475726E6564E7
:10BD50002025732E0000000020B10278DE2A03D0D7
:10BD6000082070470E20704741800020704760B166
:10BD700059B10278DE2A0AD009684160DE210170DB
:10BD80004FF6FF714180002070470E207047082059
:10BD900070477FB5054600294DD0002D4BD008785F
:10BDA0000C46DE2847D1A8886188884202D1204607
:10BDB00002F028F82888012825D002283BD0112835
:10BDC0003AD0512837D135F8040F6188884232D1F2
:10BDD000A978A81C02292ED1017A042903D00629AA
:10BDE00001D0052927D10021009102228DF80020E1
:10BDF00001914FF4C07202910391ADF80420007AD2
:10BE000005280FD010E0297A2046012913D1A988EE
:10BE1000428891420FD10121017204B0BDE8704007
:10BE200001F0F0BFADF8041028886946B0DF0028A3
:10BE300001D0616888477FBDA88861888842FAD1AF
:10BE40004FF6FF7060807FBD00F1804000680028E1
:10BE500000D00120704708B500F18040002101604A
:10BE60000068009008BD00002DE9F041040007D0F3
:10BE7000044E4FF47A47751C3846A847641EFAD121
:10BE8000BDE8F08160DF010070B50D4C0125207820
:10BE900008B185260EE00020A06060602061E060AF
:10BEA000084800F063FF064600F0A6FE08B900F05F
:10BEB00047FF257000F03CFF00B1A570304670BD13
:10BEC000B430002025AE010038B500258DF80050B3
:10BED0006846FDF7C5FE084CE068401EE060E0687B
:10BEE00028B900F025FF10B900F04EFFA5709DF8AD
:10BEF0000000FDF7D9FE38BDB430002030B41C4638
:10BF00000378064D45F823202D1D45F8234002B146
:10BF1000034A30BC001D01F079B80000D82B002086
:10BF2000F9D901000FB408B50399002904D004AA77
:10BF300000926A4600F00FF801B05DF814FB10B5EE
:10BF400082680446002A05D0D4E904032168984792
:10BF50000020A06010BD2DE9FC4791460C008046F2
:10BF600076D014F8011B39B125290ED04046FEF7D2
:10BF700007FE20780028F4D198F80C00002867D03C
:10BF80004046BDE8FC47FFF7DABF002001222178D8
:10BF90002B291BD02D2902D0302908D102E040F0F6
:10BFA000010001E040F00200641C002AEFD10025EE
:10BFB0002A290ED02178A1F130020A2A11D205EBEC
:10BFC000850201EB4205641C303DF1E740F00400BE
:10BFD000EAE7D9F800100B1DC9F800300968641CA5
:10BFE0000D44217800232E290BD114F8011FA1F153
:10BFF00030020A2A05D203EB830201EB4203303BF5
:10C00000F3E76C290DD068290BD0692921D00BDC0E
:10C01000252918D0582931D063290ED0642915D18B
:10C0200017E014F8011FECE7702969D0732932D0AA
:10C0300075291BD0782909D120E0D9F80000011D0D
:10C04000C9F8001001784046FEF79AFD641C90E79D
:10C050006CE0D9F800100A1DC9F800200968CDE984
:10C0600000500A224046FFF70DFAEFE7D9F800101A
:10C070000A1DC9F8002009680A2206E0D9F8001054
:10C080000A1DC9F8002009681022CDE90050404679
:10C0900001F01EFEDAE7D9F8001000270A1DC9F8E2
:10C0A00000200E68C00705D112E04046761C7F1CB8
:10C0B000FEF766FD31780029F7D104E020214046E3
:10C0C0006D1EFEF75DFDBD42C0D9002DF6D1BDE766
:10C0D0004EB13046FDF7BEF9074604E02021404648
:10C0E0006D1EFEF74DFDBD4206D9002DF6D103E0D1
:10C0F0004046761CFEF744FD31780029F8D1A5E7CB
:10C10000D9F80000011DC9F800100568302140462B
:10C11000FEF736FD78214046FEF732FD082000216B
:10C12000CDE90001034610222946B0E7BDE8FC87AF
:10C1300070B541EA4201DDE904564FF0A04441EAFE
:10C14000830141EA052104EB800041EA0641C0F881
:10C15000001770BD70B541EA4201DDE904564FF0A9
:10C16000A04441EA830141EA052104EB800041EA51
:10C170000641C0F8001770BD70B541EA4201DDE923
:10C1800004564FF0A04441EA830141EA052104EB43
:10C19000800041EA0641C0F8001770BD1CB50021BF
:10C1A00000910B46012201911146FFF7E5FF1CBDEE
:10C1B0004FF0A04202EB8000D0F8002722F440327A
:10C1C000C0F80027D0F8002742EA0141C0F8001764
:10C1D0007047000038B5094B44181B6800936B4644
:10C1E00008E000BF53F82010D1F8205520C2C1F854
:10C1F0002055401C8442F5D838BD000060E00100A5
:10C2000042094FF0000100D1491E00F01F00012239
:10C2100082400A4201D001207047002070474FF051
:10C22000A04201218140C2F808157047034908B5B2
:10C230000844002101600068009008BD00600040D3
:10C2400002494058012800D000207047006000409B
:10C250007047704708B5034A00924023024A00F035
:10C2600005F808BD4DD80100E0310020F0B595B0CB
:10C270001C4615460F4608461A9E00F0CBFA1821B8
:10C2800009A8FDF7DCF80E96CDE909540023082231
:10C2900003A9384600F0D1FA05980690BDF81000C1
:10C2A000ADF81C00BDF81200ADF81E0000208DF89E
:10C2B00021000398082600F00300012802D002287C
:10C2C00018D032E003983346850AC0F3C2008DF8D7
:10C2D000200003980FA9C0F38314A200384600F091
:10C2E000ACFA09A8009006AB22460FA9284600F038
:10C2F000EDF91AE00398840DC0F3C2008DF8200018
:10C30000082C01D2254600E0082533462A460FA90D
:10C31000384600F092FA2E44641B09AB06AA29465F
:10C320000FA800F04FF9002CEAD1384600F076FA59
:10C3300015B0F0BD0A4A012902EBC00007D002295E
:10C3400007D0032907D0042907D000207047022016
:10C3500070470420704700797047407970470000AB
:10C3600054EA01002DE9F04F8DB0FEF721FC18B121
:10C3700000200DB0BDE8F08F7E4C4FF0000BC4F8EC
:10C3800018B4BFF34F8F7C49A06802900D68D8465F
:10C39000284004EB80000BE0D4F8180470B9616801
:10C3A0000298814201D8A160E2E7284004EB8000B6
:10C3B0000C3002A9FFF7B9F80028EDD1002005AA3A
:10C3C000029901EA050304EB8303491CDB6842F888
:10C3D0002030401C02910228F2D3059800F003009F
:10C3E000022802D001284DD0AAE005985022810DE4
:10C3F0008946B2EB905F00D850210E4666F39F50FD
:10C40000059008315D4800F0BCF9070078D000F0D5
:10C4100001FA4346082205A9384600F016FA0299A7
:10C4200008F1080A2940681A8000001D864222D9B6
:10C43000504D0C3530B1C2B204EB8101301A904638
:10C440000C3104E02946F2B2002590462846C6B2D7
:10C450005346384600F0F9F90AEB080325B1324695
:10C460002946384600F0F1F9029909F1030001EB81
:10C47000900002903BE004EB81015346324638467F
:10C480000C31EFE70598C0F38310062800D306208F
:10C49000059960F38911C1F38310801C0591810017
:10C4A000364800F06EF907004AD000F0B3F9434671
:10C4B000082205A9384600F0C8F908F10808002646
:10C4C0000FE00298434600EA0501401C04EB81019D
:10C4D0000290042238460C3100F0B7F908F1040844
:10C4E000761C0598C0F38310B042EAD847B1D4F85F
:10C4F0001054D4F8180478B1384600F08FF934E0BD
:10C500001EE0E8684079012804D12A6828463946A7
:10C5100012689047E8680568002DF2D1384600F0AF
:10C520007DF98DF800B06846FDF79AFBD4F8180441
:10C5300008B90298A0609DF80000FDF7B5FB14E073
:10C54000D4F8104405E02168204689688847E068EF
:10C550000468002CF7D10A480A49401AC008022191
:10C5600001EB004008A100F019F8FEF721FB80F074
:10C570000100FEE6E03200205C2C0020DCEA010035
:10C58000BCEA010054EA01004261636B656E6473AA
:10C5900020666C75736865640000000000231A460D
:10C5A00001F05EBA08B5012300926A4601F058FA1C
:10C5B00008BD1CB5CDE9002302236A4601F050FAFC
:10C5C0001CBD00002DE9F0470E4680461C469246F1
:10C5D000082940D894F80C90002020731946104682
:10C5E00000F0D0FF0025B54206D218F805201BA1A7
:10C5F0002046FFF797FC03E01AA12046FFF792FCC4
:10C600006D1C082DEFD318A12046FFF78BFC0025E9
:10C61000B54212D218F805707E2F08D8FCF7F2FE4A
:10C620000068C05D10F03E0F01D03A4600E02E22B7
:10C630000EA12046FFF776FC03E00DA12046FFF790
:10C6400071FC6D1C082DE3D301222146504600F0F9
:10C650007BFF84F80C90BDE8F08700002025303285
:10C6600078000000202020007C00000025630000EE
:10C670002000000002480349401AC008704700002B
:10C68000DCEA010054EA010013B56846FFF796F9A9
:10C6900008B100201CBD0248009950F831001CBDB3
:10C6A00054EA010070B508480125D0F8104405701F
:10C6B00007E0E06845712168204649688847E068DE
:10C6C0000468002CF5D170BDE03200202DE9FF4751
:10C6D00081460C9D00200C462F7B287398461646F9
:10C6E0002946184600F04EFF072E42D2DFE806F03A
:10C6F00004090F161F2A360049462846FFF712FC88
:10C7000037E0494628462268FFF70CFC31E0D4E9BF
:10C71000002349462846FFF705FC2AE0A068009060
:10C72000D4E9002349462846FFF7FCFB21E0D4E981
:10C730000201CDE90001D4E9002349462846FFF76C
:10C74000F1FB16E004F1080007C88DE80700D4E902
:10C75000002349462846FFF7E5FB0AE004F10800FC
:10C760000FC88DE80F00D4E9002349462846FFF79B
:10C77000D9FB00222946404600F0E6FE2F73BDE8B3
:10C78000FF872DE9F041058A80462D1F4819C01CFE
:10C79000B0FBF5F0C6B24046FFF702FA041E19D00E
:10C7A0000020207101206071E58000272546761E5B
:10C7B000C4F800800BE04046FFF7F2F960B1617900
:10C7C000491C6171286005467F1CC0F80080B74293
:10C7D000F1D32046BDE8F081204600F002F80020A9
:10C7E000F8E72DE9F041457901466B1E002201E092
:10C7F0000968521C9A42FBD30F680146002605E0E7
:10C8000038460C68FFF7EEF92146761CAE42F7D3A6
:10C81000BDE8F0810121001DFFF7A0B910B5044665
:10C820000121001DFFF7B6F910F0FF0F04D12046DB
:10C83000BDE81040FFF7D5BF10BD1CB50192012225
:10C84000009201AAFFF77AF81CBD1CB501920022E4
:10C85000009201AAFFF772F81CBD0000064910B54E
:10C8600000204870091D0860BFF35F8F034904482A
:10C8700000F0E6F9002010BD482C0020C0E00100C7
:10C88000D4310020FDF750B908B50022425040587D
:10C89000009008BD20B1034909680160002070477D
:10C8A0000E207047A0E201002DE9FE4307460E4628
:10C8B0000846FFF7EFFF002878D100250095019585
:10C8C00006208DF800704FF00108ADF804000295C5
:10C8D0008DF8028069462020326869DF3449354A84
:10C8E000891AC908012202EB014430B100F016FA9E
:10C8F000024620463049FFF755FE00950195029506
:10C900008DF8018069464020326869DF30B100F05F
:10C9100005FA024620462949FFF744FE00958DF8A6
:10C920000070F720ADF802000195029569462320BA
:10C93000326869DF30B100F0F1F902462046204943
:10C94000FFF730FE0095019502958DF8008069464D
:10C950000120326869DF30B100F0E0F9024620467C
:10C960001849FFF71FFE4FF4B06000900195029543
:10C970006946A120326869DF30B100F0CFF9024684
:10C9800020461149FFF70EFE0095019502958DF89E
:10C9900000506946A020326869DF30B100F0BEF96E
:10C9A000024620460949FFF7FDFD0020BDE8FE8351
:10C9B000CCEA010054EA01009CE80100E4E801002F
:10C9C00030E90100FCE7010048E80100A8E70100A8
:10C9D0002DE9F0410546076860DF804619491A488D
:10C9E0002A68081AC608BA4219D9022000EB064480
:10C9F00016A12046FFF7D2FD20463A461FA12B681C
:10CA0000FFF7D7FD4FF08050D0F80C012968800265
:10CA100000F10050421A204625A1FFF7C3FDB8F1EE
:10CA200000004FF001040AD000F078F9024604EB50
:10CA300006402AA1FFF7B6FD4046BDE8F0812F4829
:10CA40000470F9E7CCEA010054EA0100496E7375FD
:10CA50006666696369656E742052414D20616C6C35
:10CA60006F636174656420666F722074686520531B
:10CA70006F66744465766963652E00004368616E75
:10CA80006765207468652052414D2073746172742B
:10CA9000206C6F636174696F6E2066726F6D2030F9
:10CAA00078257820746F20307825782E00000000DB
:10CAB0004D6178696D756D2052414D2073697A65BD
:10CAC00020666F72206170706C69636174696F6E4B
:10CAD00020697320307825782E00000073645F622F
:10CAE0006C655F656E61626C65282920726574757E
:10CAF000726E65642025732E00000000B32C0020A8
:10CB000030B51548ADF5017D0078002821D04FF4EF
:10CB1000FA7500BFADF8005280A9684661DF38B1F0
:10CB2000052816D00DF5017DBDE83040FCF7FCBFAF
:10CB30006C460A497DA800F083F806E0D0E90021A0
:10CB4000204690477DA800F092F87F980028E1D019
:10CB5000F4E70DF5017D30BDB32C0020A4E2010007
:10CB60007CB5194C207808B108207CBD0120A0704C
:10CB7000002000F035FE112819D0002000F048FEFA
:10CB800012480026006801908DF800606846FDF7A5
:10CB900067F80F4901A810DF05000AD000202070B7
:10CBA0009DF80000FDF780F82DB128467CBD0020DF
:10CBB0007CBD0120F3E7A670667000F0EBFE01205B
:10CBC00000F026FEF3E70000B02C002038E2010060
:10CBD000A59A01000EB50749684600F031F805E056
:10CBE000D0E900108847684600F041F80298002814
:10CBF000F6D10EBD54E201000148007870470000F4
:10CC0000B02C00201FB568464BDF30B1052814D08A
:10CC100004B0BDE81040FCF787BF084901A800F048
:10CC20000FF806E0D0E900210098904701A800F035
:10CC30001EF803980028E6D0F4E71FBDC0E201000B
:10CC4000016009684160AFF3008010B5D0E90021B0
:10CC50005368994201D1002104E0D1E90034A34294
:10CC600002D01946816010BD08314160F0E781684B
:10CC700000290BD0026892680A44826041684B68C0
:10CC80009A4203D108314160FFF7DFBF704770B5AA
:10CC90000D460646446804E0B2682946904718B13C
:10CCA000246820680028F7D120682860256070BDBE
:10CCB00040680068704741680868002801D0026831
:10CCC0000A60704702460020526806E08B4203D19A
:10CCD00008681060012070471A461368002BF5D1D0
:10CCE000704700000C4A10B502F594730EE0991AD3
:10CCF000C91001EBD171491002EBC1010C688442EB
:10CD000001D90B4602E005D201F108029A42EED3A6
:10CD1000002010BD486810BDE0E0010000B5FFF73D
:10CD2000E1FF002800D1014800BD0000CCE0010077
:10CD300002480068002800D001207047000401402C
:10CD400008480068012110F0010F06D14FF0E020E3
:10CD5000C02280F800248430C167034901200860A4
:10CD60007047000000E100E0180500400549024658
:10CD700000200B790BB1852070470A6001220A71EF
:10CD800070470000C82B0020022010B54107C1F8F1
:10CD900008034FF48270FFF75EF805490120086030
:10CDA00004480168C1F300410029FAD110BD000018
:10CDB0000C00004018040040002802D00149800106
:10CDC0000847704791E001002DE9F0410E46054605
:10CDD00000F040FB0028284619D0FDF73FFF083837
:10CDE00000F0AAFB032802D001280ED007E04FF084
:10CDF000A040D0F81005E84010F0010F05D0032145
:10CE00002846BDE8F041FFF7D3B90221F8E700F06A
:10CE10002DFB002822D02846FDF720FF04464FF4C2
:10CE2000807000EB84000E4F81B207EB8400D0F8D5
:10CE3000102542F00102C0F810250846FFF7F6F968
:10CE4000002E0BD02846FDF709FF064951F82000B7
:10CE5000002803D00120A040C7F80403BDE8F081FA
:10CE600000600040C83000202DE9FC41DFF8B880A8
:10CE7000044608EB0400002790F930001346C01761
:10CE80000E46401C01D008274AE0B0781946C0F38E
:10CE900040022046FDF7BEFE0546401C3FD0B0785C
:10CEA000410717D4C0070AD04FF0A04000EB840020
:10CEB000D0F8001721F00201C0F8001707E00021A8
:10CEC0007378204600910A460191FFF743F9204606
:10CED00000F0B2FAB078800718D51448317800EB2A
:10CEE0008500D0F81025124B1A40C0F810254FF4D9
:10CEF000F8524FF4403302EA042203EA01410A43A4
:10CF0000D0F810150A43C0F8102509E008EB050019
:10CF1000327810F8481F41EA8211017000E00427BE
:10CF20003846BDE8FC810000C830002000600040A9
:10CF3000FFE0FCFF4FF0A041D1F81015C14011F007
:10CF4000010000D00120704770B5194D95F85800C8
:10CF500008B1082070BD0024661E2046FFF750F976
:10CF600010B1281980F83060641CE4B2202CF4D38E
:10CF700000242046FDF740FE641CE4B20C2CF8D3DC
:10CF800000200D4968650B4CC02081F80004012683
:10CF90004020891FC1F800014FF4BE70FFF746F929
:10CFA000A004C4F8040385F85860002070BD000098
:10CFB000C83000200060004006E000E0034890F820
:10CFC0005800002800D0012070470000C830002021
:10CFD00038B50D4600F022FB040014D000208DF877
:10CFE00000006846FCF73CFE207928B19DF800005F
:10CFF000FCF75AFE112038BD0120256020719DF8F4
:10D000000000FCF751FE002038BD00002DE9FC5F58
:10D01000064600790C46154600EB400101EBC002C4
:10D020005E49984601EB8207397F11B10820BDE8BF
:10D03000FC9F5B4951F820103068FFF7C9FF08B129
:10D040001120F4E7C7E90058207B4FF0A04B4FF0C8
:10D050000109012805D8227809FA02F0CBF80C055D
:10D0600002E02078FFF7DBF84FF0000ACDF800A0CF
:10D07000CDF804A02078534652460121FFF77CF8F2
:10D0800065784FF0FF38FF2D07D009FA05F0CBF88F
:10D090000C052846FFF782F800E04546A078FF28F7
:10D0A00009D0002280460123CDF800A01146CDF81A
:10D0B00004A0FFF761F83079DFF8E0B000EB400240
:10D0C00002EBC0020BEB8200A178C177E078FF2869
:10D0D00004D0FFF7A4F8E078FFF760F83179E07842
:10D0E00001EB410202EBC1010BEB81018877316852
:10D0F0002378C1F80835C1F80C55C1F81085A0682F
:10D10000C1F82405237B607B00B10120012B04D0F2
:10D11000022B05D0032B08D105E040F0020004E00B
:10D1200040F0040001E040F00600C1F854053379F6
:10D13000607903EB430505EBC3030BEB830282F835
:10D1400020004A46C1F80095386808B33068217954
:10D1500040F3073000284FEA411104DB00F1E020E2
:10D1600080F8001405E000F00F0000F1E02080F8E6
:10D17000141D306840F30730002809DB00F01F0160
:10D1800002FA01F14009800000F1E020C0F800112E
:10D19000504687F81DA03A7749E700002431002067
:10D1A00064E0010070B5017800292FD1818A172928
:10D1B0002CD902691B481C490226426113680B6086
:10D1C00054694C6114690C61D468CC6094688C60BB
:10D1D00052684A60102420250122FA2B1BD004DC5F
:10D1E0003E2B1DD07D2B06D118E0B3F5FA7F10D071
:10D1F000B3F57A7F0BD0467000234D61C1E903324D
:10D200001823C1E901343E230B60C27070BD467023
:10D21000FBE7042100E008214170F6E74470F4E7E1
:10D220004570F2E7402B0020B82C0020034908602D
:10D23000034801680029FCD07047000004E5014064
:10D2400000E4014010B550B103280CD10220FDF7D5
:10D2500017FC002807D0BDE81040FCF765BCBDE80E
:10D26000104000F077BB10BD0078002807D10448BB
:10D270003B21808976DF002801D0FCF755BC704740
:10D28000402B0020F0B58BB0002601960D460446D9
:10D290008988406901AAFCF721FD0AA8CDE9086048
:10D2A0000227ADF82070ADF822602189A88808AA6D
:10D2B000ADDF002819D1A069002816D00998FDF724
:10D2C000F0FA002811D0019E0EB101203070182113
:10D2D00002A8FCF7B4F88DF808700394A888ADF89C
:10D2E00010000596A16902A888470BB0F0BD0000A8
:10D2F0007CB506468D88C88805EB450106EB4104E0
:10D30000A41D172800D217202188814200D8084682
:10D3100060800020207121882846B5DF60B1FFF7CA
:10D32000FDFC02460F481049401AC008012101EBDC
:10D3300000400EA1FFF736F96079002810D1F0689F
:10D3400000280DD01549D1E90201CDE90001ADF861
:10D3500002506088ADF80400F26869463046904794
:10D360007CBD000054EA010054EA010073645F626E
:10D370006C655F67617474735F65786368616E671D
:10D38000655F6D74755F7265706C792829207265B0
:10D390007475726E65642025732E000040E00100F4
:10D3A000F0B587B00C4605468E1D8988406906AAEF
:10D3B000FCF794FC18216846FCF741F80195A08819
:10D3C000069AADF80800039231882B89002704F1F2
:10D3D0001200994202D17389022B0DD0AA89914281
:10D3E0001ED1A96900291BD08DF8007004907089A6
:10D3F000ADF81400A96911E0002A11D0FDF751FA27
:10D4000020B1069901200870022002E006980770FA
:10D4100003208DF80000A969002901D068468847DB
:10D4200007B0F0BD0068012803D0022801D0002019
:10D43000704701207047000010B50549C20800F090
:10D440000703885C01249C402043885410BD0000E1
:10D450001C3100200449084490F93000082801DB01
:10D460000120704700207047C8300020044908445C
:10D4700090F93000082801D2012070470020704741
:10D48000C83000202DE9F05F2A4F06464FF0A04A31
:10D490004FF0010B0024381990F95010491C3CD072
:10D4A00090F85000314620F0C0052846FEF7B2FB48
:10D4B00020B3204600F040F881460AEB8500D0F802
:10D4C0000007C0F30148B8F1020F18D00221284626
:10D4D000FEF76EFE0BFA05F1CAF820152846FDF797
:10D4E000BDFB57F820204AB14846B9F1030F11D0CF
:10D4F000B8F1020F05D0B8F1030F07D00DE00321FA
:10D50000E5E74846B9F1010F04D006E04846B9F115
:10D51000020F02D1014628469047641C042CBAD35E
:10D52000324601210020FEF755FE30680028B1D1B7
:10D53000BDE8F09FC83000200249084490F8500030
:10D5400080097047C830002010B50C46017A0529C3
:10D5500008D0407A38B1084808A102682046FEF792
:10D56000E1FC00E01AB106A12046FEF7DBFC2046F4
:10D57000BDE81040FEF7E3BC8C2C002025730000B2
:10D580000D0A000038B5C3880D46044633B114A017
:10D59000009015A216A12846FEF7C4FC217A0529A1
:10D5A0001CD0607A48B1A088FEF7C4FE164951F835
:10D5B000202016A12846FEF7B5FCA0880021FFF721
:10D5C00063F803461049207A143951F8202001B03D
:10D5D0002846BDE830400EA1FEF7A4BC38BD0000CF
:10D5E0001B5B306D000000001B5B313B33316D0075
:10D5F00025734C6F67732064726F707065642028A8
:10D6000025642925730D0A008C2C00202573000049
:10D610003C25733E2025733A2000000003498842D0
:10D6200001D10348704700207047000000200040EF
:10D63000D02B002070B50546FDF783FD134C40B19B
:10D64000D4E904024FF08071411842F10000C4E9AE
:10D65000041000212846FDF7C1FC30B1606820B1FC
:10D66000606800F049FA0020606001212846FDF75B
:10D67000B5FC18B1FDF7C4FEC4E90601284600F068
:10D6800087FA2846BDE8704000F038B8182C002012
:10D690002DE9F04100260E70D0E902740D46804657
:10D6A000FDF7AEFE381A002364EB01011A461B1A7F
:10D6B0008A4115DAB0F5350F04D3FCF741FA0D496C
:10D6C000421800E03A464FF4960300210A48FDF75D
:10D6D00044FD10B10D2807D00AE00120BDE8F0811B
:10D6E00000210548FDF770FC404600F005FA28705F
:10D6F0000020F3E7FFFFB400202C0020F8B5204CF9
:10D70000064600251F48FFF7D3FA10B3D0E90210F0
:10D71000CA4372EA000224D0626882B16368D3E926
:10D720000223891A984127D26068D0E90210C943C0
:10D7300071EA000103D061681248FFF7A8FA00F00F
:10D7400055F907466946FFF7A3FFB0B1606858B1C5
:10D750000DE0606800280FD13046BDE8F840FDF7C5
:10D76000F8BC00F043F9CDE73046FDF7EEFC67600A
:10D770009DF800000028C5D1F8BD6560C2E7000033
:10D78000182C002078E0010038B50021012548B1AF
:10D79000012810D003280DD1FFF7D2FABDE8384098
:10D7A000FEF792BB4FF0E020C0F88051BFF34F8FDF
:10D7B000BFF36F8F38BD8DF800106846FCF750FA44
:10D7C000064C207808B9FEF75FFBE068401CE0607B
:10D7D000A5709DF80000FCF767FA38BDB430002052
:10D7E0003EB5044609496846FFF72AFA08E000BF3B
:10D7F000D0E900212046904730B16846FFF737FA5C
:10D8000002980028F4D13EBD11203EBD3CE201004B
:10D810003EB5044608496846FFF712FA07E000BF24
:10D82000D0E90021204690476846FFF720FA029889
:10D830000028F5D13EBD000048E201000249896997
:10D84000002900D0084770471C3000202DE9F04126
:10D850001400884618D000250E4F032608EB05015A
:10D8600022460020FBF7BEFE0544241A40B9387852
:10D87000002809D008494FF47A408847761E05D021
:10D8800001203870002CE9D1BDE8F081002038700B
:10D89000FAE70000502C002021E201002DE9F041C0
:10D8A0000746806A14468846C8B3002531E000BFA9
:10D8B000B96A05EB450001EB8006B088801CFE28A4
:10D8C00002D90C20BDE8F0812288401C08F8020033
:10D8D00020881622401C80B2208008F80020208872
:10D8E000401C80B2208000EB0801308800F0EAF98B
:10D8F0002188084480B22080B28842B1B16871B1F9
:10D900004044FBF783FD2088B188084420806D1CCB
:10D91000EDB297F82C00A842CAD80020D2E7FFE762
:10D920000720CFE70A78062822F0FF020A7010D2FB
:10D93000DFE800F0030507090B0D002008E01120C7
:10D9400006E0212004E0312002E0122000E0222045
:10D950000870704710B50020FDF792F808B1FCF789
:10D96000E3F8FCF7E7FF08B1FCF7DEF833DF002847
:10D9700003D0BDE81040FCF7D7B810BD002805D192
:10D980000349012048700020FDF738BA70470000B5
:10D99000B430002010B51620FBF7A6FFA0B1114847
:10D9A00090F800044009082811D20121814011F0AB
:10D9B000EC0F0CD00C4882684FF480016AB101680A
:10D9C00041F48001016010BD42F2010001E042F229
:10D9D0000200BDE81040FCF7A7B84FF0E020C0F807
:10D9E000001110BD16E000E0C83100200148FFF72B
:10D9F00062B9000078E0010000B585B00A46017800
:10DA00008DF8001041680191017A8DF80810C16805
:10DA10000391007C8DF81000044850F82210001F7C
:10DA200050F822206846904705B000BDDC2B00204E
:10DA3000C207002A03D000BF4FF00F0201E04FF0F1
:10DA4000F00201D04FEA0111044B03EB50031878A8
:10DA500000EA020040EA01001870704750310020CF
:10DA60002DE9F84F074622489146884605681E462C
:10DA7000012269461846FDF739F8DFF878A060B34F
:10DA8000009800210446801C0AE000BF00EA05025D
:10DA900059F821C00AEB8202401C491CC2F80CC094
:10DAA000B142F3D34FEA1749FDF784FA611C2940CC
:10DAB0000AEB810149EA00422C40CA600AEB84016A
:10DAC000C86867F3C50066F3891068F39F2020F0EB
:10DAD0000300401C20F00400C8609AF8000001E038
:10DAE000FEF740FC0028FBD1FDF770FDBDE8F88F84
:10DAF0005C2C0020E0320020F8B5044622480026C5
:10DB0000007878B374B3FDF77BFCD4E90232C01A15
:10DB100091412DD300258DF800506846FCF7A0F800
:10DB2000206910B9681EC4E902009DF80000FCF7E6
:10DB3000BBF8D4E9051088478DF800506846FCF71B
:10DB40008FF822697AB1D4E90210CB4373EA00035B
:10DB500009D089186841C4E902109DF80000FCF75B
:10DB6000A3F809E00DE09DF80000FCF79DF808E03F
:10DB7000D84370EA020004D021460448FFF787F832
:10DB800001263046F8BD0000182C002078E0010086
:10DB900038B51D4D69462868FDF7A4FF1B4C30E0E1
:10DBA000017821B101290ED0022922D117E0416864
:10DBB000D1E90220D24372EA00021AD0124808309A
:10DBC000FFF765F815E041686068814202D10020E6
:10DBD00060600EE00C480830FFF774F809E0FFF7CA
:10DBE00005FF20B14FF0FF31C0E90211F7E7012036
:10DBF000207069462868FDF76AFF69462868FDF7C6
:10DC000071FF0028CCD138BD70E00100182C002035
:10DC1000F8B50B4C0D46064669462068FDF74CFFEB
:10DC200058B10670456069462068FDF766FF10B17F
:10DC30000448FDF773FA0020F8BD0420F8BD000089
:10DC400070E00100202C0020034880684108034850
:10DC500000224068FBF7B8BFE02B002068E001001D
:10DC600038B5D0F818258DF800208B694A6A9A4299
:10DC700003D29DF800304C69A3544B6A5B1C4B6285
:10DC800091F828405A1C3CB10C69944200D90A61B1
:10DC90008C69944200D98A610D69954202D9C9689C
:10DCA000895C04E08C69944204D991F82010C0F892
:10DCB0001C1503E0AB4201D3A34201D2012038BDC1
:10DCC000002038BD0870000A48700220704700002C
:10DCD0002DE9F05F8346DDE90A4A994690460D46F4
:10DCE0000846012703E000BFB0FBF8F07F1C404569
:10DCF000FAD2B94500D94F465FEACA7012D18CB149
:10DD00005FEA8A7002D5B9F1000F01D0202607E042
:10DD1000302605E031465846641EFCF731FF0CB151
:10DD2000A742F7D35FF00106B9F1010F02D9A9F1BB
:10DD3000010903E0B5FBF6F0404502D306FB08F607
:10DD4000F2E7DFF83C9000BFB5FBF6F000FB16559C
:10DD500019F800105846FCF713FFB6FBF8F6002E32
:10DD6000F2D15FEACA7009D0002C07D0A74205D2D1
:10DD700020215846641EFCF703FFF5E7BDE8F09F3D
:10DD800096E00100F8B5054680B2FDF771FB04008E
:10DD900013D0154E207A0027317B88420ED2A8B2CC
:10DDA00004F10A0175DF28B1112806D0BDE8F8405A
:10DDB000FFF744BD207A401C2072F8BD2772307CEA
:10DDC00038B1A8B23B2176DF18B1082801D0FFF79F
:10DDD00035FD71690029F0D08DF80070ADF8025062
:10DDE00068468847F8BD00001C300020417939B1F1
:10DDF00090F8F21021B990F8F40008B101207047B2
:10DE00000020704730B40446007A00280AD06088A9
:10DE1000002166DF28B1112802D0616830BC0847B4
:10DE20000120207230BC704770B50C460546FCF7E7
:10DE3000CBFE002807D04268002A04D0214628469D
:10DE4000BDE87040104770BD2DE9FC411646DDE984
:10DE50000854CDE900541F468046022200F00CF819
:10DE6000002807D1CDE900543B46102231464046F8
:10DE700000F002F8BDE8FC812DE9FC5F0026DDE939
:10DE80000C4B994692468E4680462788354630E0B0
:10DE9000D8F80400002200EB850069460068019074
:10DEA00001A864DF002830D19DF8000050451FD143
:10DEB0000EB1002100E002212288084411185945C2
:10DEC00022D846B9521C90B2208009F800E0208880
:10DED000401C20800126218801A801EB0902694627
:10DEE00064DF002811D120889DF8001008442080AC
:10DEF0006D1CB8F80000A842CADC56B12088C01BCF
:10DF0000401E80B2FF2802D90C20BDE8FC9F09F812
:10DF100007000020F9E710B5042817D209B103243F
:10DF200000E00024FCF7C2FC4FF0A04101EB8000B0
:10DF3000D0F8001721F44031C0F80017D0F80017CE
:10DF400041EA0441C0F80017002010BD062010BDB2
:10DF5000002B0020202B002000000000000000000B
:10DF60000338FDD8704700803A96C7AB00C047D24F
:10DF70000EE2DAEE48F80EFEFFFF0EFE48F8DAEE8B
:10DF80000EE247D200C0C7AB3A960080C66939544A
:10DF90000040B92DF21D2611B807F2010000F20170
:10DFA000B8072611F21DB92D00403954C66900008A
:10DFB000721CE4385555C771398EABAA1CC78EE365
:10DFC000FFFF8EE31CC7ABAA398EC7715555E438E5
:10DFD000721C0000721CE4385555C771398EABAA0B
:10DFE0001CC78EE3FFFF8EE31CC7ABAA398EC77137
:10DFF0005555E438721C000000000000004000404D
:10E000000000000000000000FFFFFFFF06FF00000F
:10E0100000000008000000000D0E0F10982B0020DB
:10E020000D00030055A901000E00030055A90100D1
:10E030000F00030055A901001000030055A90100BD
:10E04000770A000000000000770A000000000000CE
:10E050009ECADC240EE5A9E093F3A3B50000406E50
:10E06000000000504196010003000000F82B002042
:10E07000603100200100060000000000382C002064
:10E0800041AE0100000000000000000000000000A0
:10E090000338FDD8704730313233343536373839AC
:10E0A00041424344454600000000000000000000DB
:10E0B0000000000000000000000000000000000060
:10E0C000A8E00100C0E0010004000000556E6B6E86
:10E0D0006F776E206572726F7220636F64650000E7
:10E0E00000000000CCE601000100000078E501001E
:10E0F000020000006CE3010003000000ECE50100F9
:10E100000400000040E601000500000020E50100D9
:10E1100006000000BCE401000700000028E6010042
:10E120000800000034E501000900000098E5010046
:10E130000A000000B4E601000B00000054E30100F7
:10E140000C0000004CE501000D0000001CE7010080
:10E150000E00000018E601000F00000054E6010068
:10E160001000000088E601001100000030E7010007
:10E170001200000004E7010013000000A0E6010007
:10E1800080000000D4E401008100000010E40100E0
:10E1900082000000D0E3010083000000B0E3010032
:10E1A00084000000ECE3010085000000F8E40100B9
:10E1B0008600000000E60100900000009CE40100E1
:10E1C0009100000090E301009200000060E5010072
:10E1D0000082000068E6010001820000B4E5010051
:10E1E00002820000D0E50100008400002CE4010060
:10E1F00001840000D8E601000284000074E40100FC
:10E200000384000050E4010055C2010053C2010024
:10E2100051C20100000000000000000000000000EA
:10E220000338FDD870470000000000000000000027
:10E2300000000000000000000010020128E20100C0
:10E2400038E201000800000060E2010070E2010015
:10E250000800000070E2010080E2010008000000F8
:10E2600048EB010050EB010000000000000000003E
:10E2700038EB010048EB0100000000000000000046
:10E28000F0EA0100F8EA0100F8EA010018EB0100E9
:10E2900018EB010028EB010028EB010030EB010036
:10E2A000002B002080E20100A0E201000800000035
:10E2B00030EB010038EB010000000000000000001E
:10E2C000B0E20100C0E20100080000000040404050
:10E2D0004040404040404141414141404040404039
:10E2E00040404040404040404040404040050202E5
:10E2F00002020202020202020202020202202020A4
:10E3000020202020202020020202020202029090FF
:10E3100090909090101010101010101010101010FD
:10E320001010101010101010020202020202888851
:10E33000888888880808080808080808080808085D
:10E340000808080808080808020202024000000045
:10E35000CDE201004E52465F4552524F525F494E48
:10E3600056414C49445F4441544100004E52465F7F
:10E370004552524F525F534F4654444556494345C8
:10E380005F4E4F545F454E41424C454400000000F3
:10E390004E52465F4552524F525F46454154555288
:10E3A000455F4E4F545F454E41424C45440000008E
:10E3B0004E52465F4552524F525F4D555445585F3D
:10E3C000554E4C4F434B5F4641494C45440000007D
:10E3D0004E52465F4552524F525F4D555445585F1D
:10E3E0004C4F434B5F4641494C4544004E52465FBB
:10E3F0004552524F525F4D555445585F434F4E441E
:10E400005F494E49545F4641494C45440000000075
:10E410004E52465F4552524F525F4D555445585FDC
:10E42000494E49545F4641494C4544004E52465F6F
:10E430004552524F525F424C455F495053505F52D4
:10E44000585F504B545F5452554E4341544544001D
:10E450004E52465F4552524F525F424C455F4950C3
:10E4600053505F504545525F52454A4543544544D9
:10E47000000000004E52465F4552524F525F424CE0
:10E48000455F495053505F4C494E4B5F444953439D
:10E490004F4E4E4543544544000000004E52465FE7
:10E4A0004552524F525F4150495F4E4F545F494D64
:10E4B000504C454D454E5445440000004E52465F79
:10E4C0004552524F525F4E4F545F535550504F522A
:10E4D000544544004E52465F4552524F525F4D4F95
:10E4E00044554C455F4E4F545F494E495449414C49
:10E4F000495A4544000000004E52465F4552524F73
:10E50000525F4D4F44554C455F414C524541445933
:10E510005F494E495449414C495A45440000000066
:10E520004E52465F4552524F525F4E4F545F464FD8
:10E53000554E44004E52465F4552524F525F494E2F
:10E5400056414C49445F5354415445004E52465F36
:10E550004552524F525F444154415F53495A45001E
:10E560004E52465F4552524F525F494F5F50454EA3
:10E5700044494E47000000004E52465F4552524FFC
:10E58000525F5356435F48414E444C45525F4D499C
:10E590005353494E470000004E52465F4552524F7A
:10E5A000525F494E56414C49445F4C454E47544892
:10E5B000000000004E52465F4552524F525F445297
:10E5C000565F5457495F4552525F414E41434B009D
:10E5D0004E52465F4552524F525F4452565F545717
:10E5E000495F4552525F444E41434B004E52465F95
:10E5F0004552524F525F494E5445524E414C0000D5
:10E600004E52465F4552524F525F53544F5241470C
:10E61000455F46554C4C00004E52465F4552524FA6
:10E62000525F4E554C4C00004E52465F4552524F81
:10E63000525F494E56414C49445F504152414D0052
:10E640004E52465F4552524F525F4E4F5F4D454DC1
:10E65000000000004E52465F4552524F525F464FF7
:10E660005242494444454E004E52465F4552524F35
:10E67000525F4452565F5457495F4552525F4F565E
:10E68000455252554E0000004E52465F4552524F81
:10E69000525F494E56414C49445F41444452000048
:10E6A0004E52465F4552524F525F5245534F55525C
:10E6B000434553004E52465F4552524F525F494EBA
:10E6C00056414C49445F464C414753004E52465FC9
:10E6D00053554343455353004E52465F4552524FA4
:10E6E000525F424C455F495053505F4348414E4E44
:10E6F000454C5F414C52454144595F45584953543C
:10E70000530000004E52465F4552524F525F434FF6
:10E710004E4E5F434F554E54000000004E52465F30
:10E720004552524F525F54494D454F5554000000D9
:10E730004E52465F4552524F525F42555359000068
:10E740007761726E696E67006465627567000000CC
:10E750001B5B313B33306D001B5B306D00000000F4
:10E760001B5B313B33316D001B5B313B33326D0042
:10E770001B5B313B33336D001B5B313B33346D002E
:10E780001B5B313B33356D001B5B313B33366D001A
:10E790001B5B313B33376D00696E666F0000000014
:10E7A0006572726F7200000073645F626C655F6314
:10E7B00066675F73657428292072657475726E656B
:10E7C00064202573207768656E20617474656D70B0
:10E7D00074696E6720746F2073657420424C455FC6
:10E7E00047415454535F4346475F5345525649434C
:10E7F000455F4348414E4745442E000073645F62C5
:10E800006C655F6366675F73657428292072657441
:10E8100075726E6564202573207768656E2061745B
:10E8200074656D7074696E6720746F2073657420F1
:10E83000424C455F434F4D4D4F4E5F4346475F56F9
:10E84000535F555549442E0073645F626C655F6386
:10E8500066675F73657428292072657475726E65CA
:10E8600064202573207768656E20617474656D700F
:10E8700074696E6720746F2073657420424C455F25
:10E8800047415454535F4346475F415454525F5489
:10E8900041425F53495A452E0000000073645F6295
:10E8A0006C655F6366675F736574282920726574A1
:10E8B00075726E6564202573207768656E206174BB
:10E8C00074656D7074696E6720746F207365742051
:10E8D000424C455F434F4E4E5F4346475F47415072
:10E8E0002E00000073645F626C655F6366675F7330
:10E8F000657428292072657475726E6564202573AD
:10E90000207768656E20617474656D7074696E67D8
:10E9100020746F2073657420424C455F4741505FFF
:10E920004346475F524F4C455F434F554E542E0070
:10E9300073645F626C655F6366675F7365742829E3
:10E940002072657475726E65642025732077686522
:10E950006E20617474656D7074696E6720746F20C9
:10E9600073657420424C455F434F4E4E5F434647AC
:10E970005F474154542E00006E72665F626C655FA3
:10E980006761747400000000626C655F6E757300EF
:10E99000636C6F636B000000434C4F434B000000FF
:10E9A0004750494F5445000050525300554152546E
:10E9B00000000000554152544500000053504900EA
:10E9C0006170705F627574746F6E00006170705F6B
:10E9D00074696D65720000007077725F6D676D74A9
:10E9E00000000000736F72746C69737400000000A3
:10E9F0007274745F6C6F675F6261636B656E6400F5
:10EA0000617070006E72665F736468006E72665F3C
:10EA10007364685F626C65006E72665F7364685FE2
:10EA2000736F630050EB0100002B0020B801000061
:10EA300088940100BCEB0100B82C0020D014000029
:10EA4000DA98010008E2010000000000F0E901008E
:10EA5000542C002078E901000000030388E901003C
:10EA60000000000090E901000000000098E90100AA
:10EA700000000000A0E9010000000000A8E901007A
:10EA800000000000ACE9010000000000B4E9010052
:10EA900000000000BCE9010000000000C0E9010026
:10EAA00000000000CCE9010000000000D8E90100EE
:10EAB00000000000E4E901000000000000EA01009D
:10EAC0000000030304EA0100000003030CEA010054
:10EAD0000000030318EA010000000303682C002073
